{
    "_format": "hh-sol-artifact-1",
    "contractName": "BuyMeATea",
    "sourceName": "contracts/BuyMeATea.sol",
    "abi": [
        {
            "inputs": [],
            "stateMutability": "nonpayable",
            "type": "constructor"
        },
        {
            "anonymous": false,
            "inputs": [
                {
                    "indexed": true,
                    "internalType": "address",
                    "name": "from",
                    "type": "address"
                },
                {
                    "indexed": false,
                    "internalType": "uint256",
                    "name": "timestamp",
                    "type": "uint256"
                },
                {
                    "indexed": false,
                    "internalType": "string",
                    "name": "name",
                    "type": "string"
                },
                {
                    "indexed": false,
                    "internalType": "string",
                    "name": "message",
                    "type": "string"
                }
            ],
            "name": "NewMemo",
            "type": "event"
        },
        {
            "inputs": [
                {
                    "internalType": "string",
                    "name": "_name",
                    "type": "string"
                },
                {
                    "internalType": "string",
                    "name": "_message",
                    "type": "string"
                }
            ],
            "name": "buyTea",
            "outputs": [],
            "stateMutability": "payable",
            "type": "function"
        },
        {
            "inputs": [],
            "name": "getMemos",
            "outputs": [
                {
                    "components": [
                        {
                            "internalType": "address",
                            "name": "from",
                            "type": "address"
                        },
                        {
                            "internalType": "uint256",
                            "name": "timestamp",
                            "type": "uint256"
                        },
                        {
                            "internalType": "string",
                            "name": "name",
                            "type": "string"
                        },
                        {
                            "internalType": "string",
                            "name": "message",
                            "type": "string"
                        }
                    ],
                    "internalType": "struct BuyMeATea.Memo[]",
                    "name": "",
                    "type": "tuple[]"
                }
            ],
            "stateMutability": "view",
            "type": "function"
        },
        {
            "inputs": [],
            "name": "withdrawTips",
            "outputs": [],
            "stateMutability": "nonpayable",
            "type": "function"
        }
    ],
    "bytecode": "0x608060405234801561001057600080fd5b5033600160006101000a81548173ffffffffffffffffffffffffffffffffffffffff021916908373ffffffffffffffffffffffffffffffffffffffff160217905550610aaa806100616000396000f3fe6080604052600436106100345760003560e01c80633aaa74b214610039578063865c517214610050578063911a72c81461007b575b600080fd5b34801561004557600080fd5b5061004e610097565b005b34801561005c57600080fd5b506100656100f9565b6040516100729190610726565b60405180910390f35b61009560048036038101906100909190610891565b6102dc565b005b600160009054906101000a900473ffffffffffffffffffffffffffffffffffffffff1673ffffffffffffffffffffffffffffffffffffffff166108fc479081150290604051600060405180830381858888f193505050506100f757600080fd5b565b60606000805480602002602001604051908101604052809291908181526020016000905b828210156102d357838290600052602060002090600402016040518060800160405290816000820160009054906101000a900473ffffffffffffffffffffffffffffffffffffffff1673ffffffffffffffffffffffffffffffffffffffff1673ffffffffffffffffffffffffffffffffffffffff168152602001600182015481526020016002820180546101b090610938565b80601f01602080910402602001604051908101604052809291908181526020018280546101dc90610938565b80156102295780601f106101fe57610100808354040283529160200191610229565b820191906000526020600020905b81548152906001019060200180831161020c57829003601f168201915b5050505050815260200160038201805461024290610938565b80601f016020809104026020016040519081016040528092919081815260200182805461026e90610938565b80156102bb5780601f10610290576101008083540402835291602001916102bb565b820191906000526020600020905b81548152906001019060200180831161029e57829003601f168201915b5050505050815250508152602001906001019061011d565b50505050905090565b6000341161031f576040517f08c379a0000000000000000000000000000000000000000000000000000000008152600401610316906109c7565b60405180910390fd5b600060405180608001604052803373ffffffffffffffffffffffffffffffffffffffff16815260200142815260200184815260200183815250908060018154018082558091505060019003906000526020600020906004020160009091909190915060008201518160000160006101000a81548173ffffffffffffffffffffffffffffffffffffffff021916908373ffffffffffffffffffffffffffffffffffffffff1602179055506020820151816001015560408201518160020190805190602001906103ee929190610464565b50606082015181600301908051906020019061040b929190610464565b5050503373ffffffffffffffffffffffffffffffffffffffff167fc56140e05f516509ae28110e0f72e17558a7561630dad2647c3ae87d986e365c42848460405161045893929190610a2f565b60405180910390a25050565b82805461047090610938565b90600052602060002090601f01602090048101928261049257600085556104d9565b82601f106104ab57805160ff19168380011785556104d9565b828001600101855582156104d9579182015b828111156104d85782518255916020019190600101906104bd565b5b5090506104e691906104ea565b5090565b5b808211156105035760008160009055506001016104eb565b5090565b600081519050919050565b600082825260208201905092915050565b6000819050602082019050919050565b600073ffffffffffffffffffffffffffffffffffffffff82169050919050565b600061055e82610533565b9050919050565b61056e81610553565b82525050565b6000819050919050565b61058781610574565b82525050565b600081519050919050565b600082825260208201905092915050565b60005b838110156105c75780820151818401526020810190506105ac565b838111156105d6576000848401525b50505050565b6000601f19601f8301169050919050565b60006105f88261058d565b6106028185610598565b93506106128185602086016105a9565b61061b816105dc565b840191505092915050565b600060808301600083015161063e6000860182610565565b506020830151610651602086018261057e565b506040830151848203604086015261066982826105ed565b9150506060830151848203606086015261068382826105ed565b9150508091505092915050565b600061069c8383610626565b905092915050565b6000602082019050919050565b60006106bc82610507565b6106c68185610512565b9350836020820285016106d885610523565b8060005b8581101561071457848403895281516106f58582610690565b9450610700836106a4565b925060208a019950506001810190506106dc565b50829750879550505050505092915050565b6000602082019050818103600083015261074081846106b1565b905092915050565b6000604051905090565b600080fd5b600080fd5b600080fd5b600080fd5b7f4e487b7100000000000000000000000000000000000000000000000000000000600052604160045260246000fd5b61079e826105dc565b810181811067ffffffffffffffff821117156107bd576107bc610766565b5b80604052505050565b60006107d0610748565b90506107dc8282610795565b919050565b600067ffffffffffffffff8211156107fc576107fb610766565b5b610805826105dc565b9050602081019050919050565b82818337600083830152505050565b600061083461082f846107e1565b6107c6565b9050828152602081018484840111156108505761084f610761565b5b61085b848285610812565b509392505050565b600082601f8301126108785761087761075c565b5b8135610888848260208601610821565b91505092915050565b600080604083850312156108a8576108a7610752565b5b600083013567ffffffffffffffff8111156108c6576108c5610757565b5b6108d285828601610863565b925050602083013567ffffffffffffffff8111156108f3576108f2610757565b5b6108ff85828601610863565b9150509250929050565b7f4e487b7100000000000000000000000000000000000000000000000000000000600052602260045260246000fd5b6000600282049050600182168061095057607f821691505b6020821081141561096457610963610909565b5b50919050565b600082825260208201905092915050565b7f63616e27742062757920636f6666656520776974682030206d61746963000000600082015250565b60006109b1601d8361096a565b91506109bc8261097b565b602082019050919050565b600060208201905081810360008301526109e0816109a4565b9050919050565b6109f081610574565b82525050565b6000610a018261058d565b610a0b818561096a565b9350610a1b8185602086016105a9565b610a24816105dc565b840191505092915050565b6000606082019050610a4460008301866109e7565b8181036020830152610a5681856109f6565b90508181036040830152610a6a81846109f6565b905094935050505056fea26469706673582212200dc546c4042e5a381e70bfa7f05c647615ed819cfa58aa622c4c73d4c5fbedf264736f6c63430008090033",
    "linkReferences": {},
    "deployedLinkReferences": {}
}